{
  "_format": "hh-sol-artifact-1",
  "contractName": "MinimalVoting",
  "sourceName": "contracts/MinimalVoting.sol",
  "abi": [
    {
      "anonymous": false,
      "inputs": [
        {
          "indexed": true,
          "internalType": "address",
          "name": "voter",
          "type": "address"
        },
        {
          "indexed": false,
          "internalType": "uint8",
          "name": "vote",
          "type": "uint8"
        },
        {
          "indexed": false,
          "internalType": "uint256",
          "name": "blockNumber",
          "type": "uint256"
        }
      ],
      "name": "VoteRecorded",
      "type": "event"
    },
    {
      "inputs": [],
      "name": "SYSTEM_NAME",
      "outputs": [
        {
          "internalType": "string",
          "name": "",
          "type": "string"
        }
      ],
      "stateMutability": "view",
      "type": "function"
    },
    {
      "inputs": [
        {
          "internalType": "uint8",
          "name": "vote",
          "type": "uint8"
        }
      ],
      "name": "recordVote",
      "outputs": [],
      "stateMutability": "nonpayable",
      "type": "function"
    },
    {
      "inputs": [],
      "name": "totalVotes",
      "outputs": [
        {
          "internalType": "uint256",
          "name": "",
          "type": "uint256"
        }
      ],
      "stateMutability": "view",
      "type": "function"
    }
  ],
  "bytecode": "0x608060405234801561001057600080fd5b5061023b806100206000396000f3fe608060405234801561001057600080fd5b50600436106100415760003560e01c80630d15fd77146100465780633fa8067b146100625780638167d42f146100ab575b600080fd5b61004f60005481565b6040519081526020015b60405180910390f35b61009e6040518060400160405280601781526020017f5a4b50205072697661637920566f74696e672044656d6f00000000000000000081525081565b6040516100599190610165565b6100be6100b93660046101b4565b6100c0565b005b60018160ff16111561010e5760405162461bcd60e51b8152602060048201526013602482015272766f7465206d7573742062652030206f72203160681b604482015260640160405180910390fd5b600160008082825461012091906101de565b90915550506040805160ff8316815243602082015233917fe6bc2985a22919565fe367a4f6bc893d330ba3f7980349e36fe1f2468062793a910160405180910390a250565b60006020808352835180602085015260005b8181101561019357858101830151858201604001528201610177565b506000604082860101526040601f19601f8301168501019250505092915050565b6000602082840312156101c657600080fd5b813560ff811681146101d757600080fd5b9392505050565b808201808211156101ff57634e487b7160e01b600052601160045260246000fd5b9291505056fea26469706673582212205554e83b017b8d046d5d20e18d1172be18fce541b2150d1789af97cf239a50e664736f6c63430008180033",
  "linkReferences": {},
  "deployedLinkReferences": {}
}