{
  "_format": "hh-sol-artifact-1",
  "contractName": "VotingWithVerifier",
  "sourceName": "contracts/VotingWithVerifier.sol",
  "abi": [
    {
      "inputs": [
        {
          "internalType": "address",
          "name": "verifierAddress",
          "type": "address"
        }
      ],
      "stateMutability": "nonpayable",
      "type": "constructor"
    },
    {
      "anonymous": false,
      "inputs": [
        {
          "indexed": true,
          "internalType": "uint256",
          "name": "nullifierHash",
          "type": "uint256"
        },
        {
          "indexed": false,
          "internalType": "uint256",
          "name": "voteHash",
          "type": "uint256"
        }
      ],
      "name": "VoteVerifiedAndRecorded",
      "type": "event"
    },
    {
      "inputs": [],
      "name": "getAllVoteRecords",
      "outputs": [
        {
          "internalType": "uint256[]",
          "name": "",
          "type": "uint256[]"
        },
        {
          "internalType": "uint256[]",
          "name": "",
          "type": "uint256[]"
        }
      ],
      "stateMutability": "view",
      "type": "function"
    },
    {
      "inputs": [
        {
          "internalType": "uint256",
          "name": "index",
          "type": "uint256"
        }
      ],
      "name": "getVoteRecord",
      "outputs": [
        {
          "internalType": "uint256",
          "name": "",
          "type": "uint256"
        },
        {
          "internalType": "uint256",
          "name": "",
          "type": "uint256"
        }
      ],
      "stateMutability": "view",
      "type": "function"
    },
    {
      "inputs": [
        {
          "internalType": "uint256",
          "name": "",
          "type": "uint256"
        }
      ],
      "name": "nullifierHashUsed",
      "outputs": [
        {
          "internalType": "bool",
          "name": "",
          "type": "bool"
        }
      ],
      "stateMutability": "view",
      "type": "function"
    },
    {
      "inputs": [
        {
          "internalType": "uint256[2]",
          "name": "pA",
          "type": "uint256[2]"
        },
        {
          "internalType": "uint256[2][2]",
          "name": "pB",
          "type": "uint256[2][2]"
        },
        {
          "internalType": "uint256[2]",
          "name": "pC",
          "type": "uint256[2]"
        },
        {
          "internalType": "uint256[2]",
          "name": "pubSignals",
          "type": "uint256[2]"
        }
      ],
      "name": "submitVote",
      "outputs": [
        {
          "internalType": "bool",
          "name": "",
          "type": "bool"
        }
      ],
      "stateMutability": "nonpayable",
      "type": "function"
    },
    {
      "inputs": [],
      "name": "totalVotes",
      "outputs": [
        {
          "internalType": "uint256",
          "name": "",
          "type": "uint256"
        }
      ],
      "stateMutability": "view",
      "type": "function"
    },
    {
      "inputs": [],
      "name": "verifier",
      "outputs": [
        {
          "internalType": "contract IGroth16Verifier",
          "name": "",
          "type": "address"
        }
      ],
      "stateMutability": "view",
      "type": "function"
    }
  ],
  "bytecode": "0x60a060405234801561001057600080fd5b5060405161074638038061074683398101604081905261002f9161008d565b6001600160a01b03811661007c5760405162461bcd60e51b815260206004820152601060248201526f34b73b30b634b2103b32b934b334b2b960811b604482015260640160405180910390fd5b6001600160a01b03166080526100bd565b60006020828403121561009f57600080fd5b81516001600160a01b03811681146100b657600080fd5b9392505050565b6080516106686100de6000396000818160f601526101be01526106686000f3fe608060405234801561001057600080fd5b50600436106100625760003560e01c80630beac070146100675780630d15fd771461009f5780631927f068146100b65780632488d909146100c95780632b7ac3f3146100f157806383ea313014610130575b600080fd5b61008a61007536600461048d565b60016020526000908152604090205460ff1681565b60405190151581526020015b60405180910390f35b6100a860005481565b604051908152602001610096565b61008a6100c43660046104bd565b610146565b6100dc6100d736600461048d565b61034b565b60408051928352602083019190915201610096565b6101187f000000000000000000000000000000000000000000000000000000000000000081565b6040516001600160a01b039091168152602001610096565b6101386103da565b604051610096929190610559565b80356000818152600160209081526040822054919291908401359060ff16156101a75760405162461bcd60e51b815260206004820152600e60248201526d6475706c696361746520766f746560901b60448201526064015b60405180910390fd5b604051637ae4eb4f60e11b81526001600160a01b037f0000000000000000000000000000000000000000000000000000000000000000169063f5c9d69e906101f9908a908a908a908a9060040161059d565b602060405180830381865afa158015610216573d6000803e3d6000fd5b505050506040513d601f19601f8201168201806040525081019061023a91906105e8565b6102765760405162461bcd60e51b815260206004820152600d60248201526c34b73b30b634b210383937b7b360991b604482015260640161019e565b60008281526001602081905260408220805460ff191682179055815490919081906102a2908490610611565b90915550506002805460018082019092557f405787fa12a823e0f2b7631cc41b3ba8828b3321ca811111fa75cd3aa3bb5ace018390556003805491820181556000527fc2575a0e9e593c00f959f8c92f12db2869c3395a3b0502d05e2516446f71f85b0181905560405181815282907f3732bbeaa3979d4c8895408e5d71bc63adf62a838f06642034bc2ed426b5eed99060200160405180910390a25060019695505050505050565b60008060005483106103955760405162461bcd60e51b8152602060048201526013602482015272696e646578206f7574206f6620626f756e647360681b604482015260640161019e565b600283815481106103a8576103a8610587565b9060005260206000200154600384815481106103c6576103c6610587565b906000526020600020015491509150915091565b606080600260038180548060200260200160405190810160405280929190818152602001828054801561042c57602002820191906000526020600020905b815481526020019060010190808311610418575b505050505091508080548060200260200160405190810160405280929190818152602001828054801561047e57602002820191906000526020600020905b81548152602001906001019080831161046a575b50505050509050915091509091565b60006020828403121561049f57600080fd5b5035919050565b80604081018310156104b757600080fd5b92915050565b60008060008061014085870312156104d457600080fd5b6104de86866104a6565b935060c08501868111156104f157600080fd5b60408601935061050187826104a6565b9250506105128661010087016104a6565b905092959194509250565b60008151808452602080850194506020840160005b8381101561054e57815187529582019590820190600101610532565b509495945050505050565b60408152600061056c604083018561051d565b828103602084015261057e818561051d565b95945050505050565b634e487b7160e01b600052603260045260246000fd5b61014081016040808784378083018660005b60028110156105cc578382843791830191908301906001016105af565b505050808560c085013780846101008501375095945050505050565b6000602082840312156105fa57600080fd5b8151801515811461060a57600080fd5b9392505050565b808201808211156104b757634e487b7160e01b600052601160045260246000fdfea264697066735822122083ae2d9bd7f50d34491b64685c22343f78aa13538f617c6589c0dab7daac6cf664736f6c63430008180033",
  "linkReferences": {},
  "deployedLinkReferences": {}
}